0377999999938411950101000005+99999+999999SAO  +999999999V02033859002152200059N024000599+02064+00675101414ADDGA1999+999999999GA2999+999999999GA3999+999999999GA4999+999999999GD19005+9999999GD29005+9999999GD39005+9999999GD49005+9999999GF100995999999999999999999MA1999999100714EQDN01 00000JPWTH 1QNNE11 1 09900E11 1 09900E11 1 09900E11 1 09900G11U1 99999H11 1 00999H11 1 00999H11 1 00999H11 1 00999K11 1 00044L11 1 01500M11 1 29740N11 1 00000Q11 1 10141S11 1 00069V11 1 00099W11 1 18004
0377999999938411950101001005+99999+999999SAO  +999999999V02033859003152200059N019200599+01834+00835101464ADDGA1999+999999999GA2999+999999999GA3999+999999999GA4999+999999999GD19005+9999999GD29005+9999999GD39005+9999999GD49005+9999999GF100995999999999999999999MA1999999100784EQDN01 00000JPWTH 1QNNE11 1 09900E11 1 09900E11 1 09900E11 1 09900G11U1 99999H11 1 00999H11 1 00999H11 1 00999H11 1 00999K11 1 00047L11 1 01200M11 1 29760N11 1 00000Q11 1 10146S11 1 00065V11 1 00099W11 1 18006
0377999999938411950101002005+99999+999999SAO  +999999999V02036059003152200059N016000599+01724+00895101494ADDGA1999+999999999GA2999+999999999GA3999+999999999GA4999+999999999GD19005+9999999GD29005+9999999GD39005+9999999GD49005+9999999GF100995999999999999999999MA1999999100814EQDN01 00000JPWTH 1QNNE11 1 09900E11 1 09900E11 1 09900E11 1 09900G11U1 99999H11 1 00999H11 1 00999H11 1 00999H11 1 00999K11 1 00048L11 1 01000M11 1 29770N11 1 00000Q11 1 10149S11 1 00063V11 1 00099W11 1 11006
0377999999938411950101003005+99999+999999SAO  +999999999V02036059003652200059N016000599+01614+00895101544ADDGA1999+999999999GA2999+999999999GA3999+999999999GA4999+999999999GD19005+9999999GD29005+9999999GD39005+9999999GD49005+9999999GF100995999999999999999999MA1999999100854EQDN01 00000JPWTH 1QNNE11 1 09900E11 1 09900E11 1 09900E11 1 09900G11U1 99999H11 1 00999H11 1 00999H11 1 00999H11 1 00999K11 1 00048L11 1 01000M11 1 29780N11 1 00000Q11 1 10154S11 1 00061V11 1 00099W11 1 11007
0377999999938411950101004005+99999+999999SAO  +999999999V02036059003152200059N016000599+01564+00835101544ADDGA1999+999999999GA2999+999999999GA3999+999999999GA4999+999999999GD19005+9999999GD29005+9999999GD39005+9999999GD49005+9999999GF100995999999999999999999MA1999999100854EQDN01 00000JPWTH 1QNNE11 1 09900E11 1 09900E11 1 09900E11 1 09900G11U1 99999H11 1 00999H11 1 00999H11 1 00999H11 1 00999K11 1 00047L11 1 01000M11 1 29780N11 1 00000Q11 1 10154S11 1 00060V11 1 00099W11 1 11006
0377999999938411950101005005+99999+999999SAO  +999999999V02036059003652200059N016000599+01504+00895101554ADDGA1999+999999999GA2999+999999999GA3999+999999999GA4999+999999999GD19005+9999999GD29005+9999999GD39005+9999999GD49005+9999999GF100995999999999999999999MA1999999100884EQDN01 00000JPWTH 1QNNE11 1 09900E11 1 09900E11 1 09900E11 1 09900G11U1 99999H11 1 00999H11 1 00999H11 1 00999H11 1 00999K11 1 00048L11 1 01000M11 1 29790N11 1 00000Q11 1 10155S11 1 00059V11 1 00099W11 1 11007
0377999999938411950101006005+99999+999999SAO  +999999999V02036059003152200059N016000599+01394+00895101544ADDGA1999+999999999GA2999+999999999GA3999+999999999GA4999+999999999GD19005+9999999GD29005+9999999GD39005+9999999GD49005+9999999GF100995999999999999999999MA1999999100854EQDN01 00000JPWTH 1QNNE11 1 09900E11 1 09900E11 1 09900E11 1 09900G11U1 99999H11 1 00999H11 1 00999H11 1 00999H11 1 00999K11 1 00048L11 1 01000M11 1 29780N11 1 00000Q11 1 10154S11 1 00057V11 1 00099W11 1 11006
0377999999938411950101007005+99999+999999SAO  +999999999V02004559001052200059N016000599+01334+00835101574ADDGA1999+999999999GA2999+999999999GA3999+999999999GA4999+999999999GD19005+9999999GD29005+9999999GD39005+9999999GD49005+9999999GF100995999999999999999999MA1999999100884EQDN01 00000JPWTH 1QNNE11 1 09900E11 1 09900E11 1 09900E11 1 09900G11U1 99999H11 1 00999H11 1 00999H11 1 00999H11 1 00999K11 1 00047L11 1 01000M11 1 29790N11 1 00000Q11 1 10157S11 1 00056V11 1 00099W11 1 22002
0377999999938411950101008005+99999+999999SAO  +999999999V02009059001552200059N012800599+01174+00725101544ADDGA1999+999999999GA2999+999999999GA3999+999999999GA4999+999999999GD19005+9999999GD29005+9999999GD39005+9999999GD49005+9999999GF100995999999999999999999MA1999999100854EQDN01 00000JPWTH 1QNNE11 1 09900E11 1 09900E11 1 09900E11 1 09900G11U1 99999H11 1 00999H11 1 00999H11 1 00999H11 1 00999K11 1 00045L11 1 00800M11 1 29780N11 1 00000Q11 1 10154S11 1 00053V11 1 00099W11 1 33003
0377999999938411950101009005+99999+999999SAO  +999999999V02004559001552200059N012800599+01114+00675101544ADDGA1999+999999999GA2999+999999999GA3999+999999999GA4999+999999999GD19005+9999999GD29005+9999999GD39005+9999999GD49005+9999999GF100995999999999999999999MA1999999100854EQDN01 00000JPWTH 1QNNE11 1 09900E11 1 09900E11 1 09900E11 1 09900G11U1 99999H11 1 00999H11 1 00999H11 1 00999H11 1 00999K11 1 00044L11 1 00800M11 1 29780N11 1 00000Q11 1 10154S11 1 00052V11 1 00099W11 1 22003
0088999999949101950123114005+42550-092400SAO  +026599999V02015859008850609649N012800599-00504-00785999999EQDN01 00000JPWTH 1QNNG11 1 00200K11 1 00018L11 1 00800N11 1 00000S11 1 00023W11 1 54017
0088999999949101950123115005+42550-092400SAO  +026599999V02015859008850609649N012800599-00334-00565999999EQDN01 00000JPWTH 1QNNG11 1 00200K11 1 00022L11 1 00800N11 1 00000S11 1 00026W11 1 54017
0088999999949101950123116005+42550-092400SAO  +026599999V02015859010850609649N012800599-00334-00505999999EQDN01 00000JPWTH 1QNNG11 1 00200K11 1 00023L11 1 00800N11 1 00000S11 1 00026W11 1 54021
0088999999949101950123117005+42550-092400SAO  +026599999V02015859008850609649N012800599-00334-00505999999EQDN01 00000JPWTH 1QNNG11 1 00200K11 1 00023L11 1 00800N11 1 00000S11 1 00026W11 1 54017
0088999999949101950123118005+42550-092400SAO  +026599999V02015859011350609649N012800599+00004-00335999999EQDN01 00000JPWTH 1QNNG11 1 00200K11 1 00026L11 1 00800N11 1 00000S11 1 00032W11 1 54022
0088999999949101950123119005+42550-092400SAO  +026599999V02015859013450304849N016000599+00174-00285999999EQDN01 00000JPWTH 1QNNG11 1 00100K11 1 00027L11 1 01000N11 1 00000S11 1 00035W11 1 54026
0088999999949101950123120005+42550-092400SAO  +026599999V02013559011850304849N016000599+00174-00285999999EQDN01 00000JPWTH 1QNNG11 1 00100K11 1 00027L11 1 01000N11 1 00000S11 1 00035W11 1 44023
0088999999949101950123121005+42550-092400SAO  +026599999V02013559012450304849N016000599+00224-00285999999EQDN01 00000JPWTH 1QNNG11 1 00100K11 1 00027L11 1 01000N11 1 00000S11 1 00036W11 1 44024
0088999999949101950123122005+42550-092400SAO  +026599999V02013559014450304849N016000599+00284-00285999999EQDN01 00000JPWTH 1QNNG11 1 00100K11 1 00027L11 1 01000N11 1 00000S11 1 00037W11 1 44028
0088999999949101950123123005+42550-092400SAO  +026599999V02013559011350304849N016000599+00174-00285999999EQDN01 00000JPWTH 1QNNG11 1 00100K11 1 00027L11 1 01000N11 1 00000S11 1 00035W11 1 44022
0377999999938411950101000005+99999+999999SAO  +999999999V02033859002152200059N024000599+02064+00675101414ADDGA1999+999999999GA2999+999999999GA3999+999999999GA4999+999999999GD19005+9999999GD29005+9999999GD39005+9999999GD49005+9999999GF100995999999999999999999MA1999999100714EQDN01 00000JPWTH 1QNNE11 1 09900E11 1 09900E11 1 09900E11 1 09900G11U1 99999H11 1 00999H11 1 00999H11 1 00999H11 1 00999K11 1 00044L11 1 01500M11 1 29740N11 1 00000Q11 1 10141S11 1 00069V11 1 00099W11 1 18004
0377999999938411950101001005+99999+999999SAO  +999999999V02033859003152200059N019200599+01834+00835101464ADDGA1999+999999999GA2999+999999999GA3999+999999999GA4999+999999999GD19005+9999999GD29005+9999999GD39005+9999999GD49005+9999999GF100995999999999999999999MA1999999100784EQDN01 00000JPWTH 1QNNE11 1 09900E11 1 09900E11 1 09900E11 1 09900G11U1 99999H11 1 00999H11 1 00999H11 1 00999H11 1 00999K11 1 00047L11 1 01200M11 1 29760N11 1 00000Q11 1 10146S11 1 00065V11 1 00099W11 1 18006
0377999999938411950101002005+99999+999999SAO  +999999999V02036059003152200059N016000599+01724+00895101494ADDGA1999+999999999GA2999+999999999GA3999+999999999GA4999+999999999GD19005+9999999GD29005+9999999GD39005+9999999GD49005+9999999GF100995999999999999999999MA1999999100814EQDN01 00000JPWTH 1QNNE11 1 09900E11 1 09900E11 1 09900E11 1 09900G11U1 99999H11 1 00999H11 1 00999H11 1 00999H11 1 00999K11 1 00048L11 1 01000M11 1 29770N11 1 00000Q11 1 10149S11 1 00063V11 1 00099W11 1 11006
0377999999938411950101003005+99999+999999SAO  +999999999V02036059003652200059N016000599+01614+00895101544ADDGA1999+999999999GA2999+999999999GA3999+999999999GA4999+999999999GD19005+9999999GD29005+9999999GD39005+9999999GD49005+9999999GF100995999999999999999999MA1999999100854EQDN01 00000JPWTH 1QNNE11 1 09900E11 1 09900E11 1 09900E11 1 09900G11U1 99999H11 1 00999H11 1 00999H11 1 00999H11 1 00999K11 1 00048L11 1 01000M11 1 29780N11 1 00000Q11 1 10154S11 1 00061V11 1 00099W11 1 11007
0377999999938411950101004005+99999+999999SAO  +999999999V02036059003152200059N016000599+01564+00835101544ADDGA1999+999999999GA2999+999999999GA3999+999999999GA4999+999999999GD19005+9999999GD29005+9999999GD39005+9999999GD49005+9999999GF100995999999999999999999MA1999999100854EQDN01 00000JPWTH 1QNNE11 1 09900E11 1 09900E11 1 09900E11 1 09900G11U1 99999H11 1 00999H11 1 00999H11 1 00999H11 1 00999K11 1 00047L11 1 01000M11 1 29780N11 1 00000Q11 1 10154S11 1 00060V11 1 00099W11 1 11006
0377999999938411950101005005+99999+999999SAO  +999999999V02036059003652200059N016000599+01504+00895101554ADDGA1999+999999999GA2999+999999999GA3999+999999999GA4999+999999999GD19005+9999999GD29005+9999999GD39005+9999999GD49005+9999999GF100995999999999999999999MA1999999100884EQDN01 00000JPWTH 1QNNE11 1 09900E11 1 09900E11 1 09900E11 1 09900G11U1 99999H11 1 00999H11 1 00999H11 1 00999H11 1 00999K11 1 00048L11 1 01000M11 1 29790N11 1 00000Q11 1 10155S11 1 00059V11 1 00099W11 1 11007
0377999999938411950101006005+99999+999999SAO  +999999999V02036059003152200059N016000599+01394+00895101544ADDGA1999+999999999GA2999+999999999GA3999+999999999GA4999+999999999GD19005+9999999GD29005+9999999GD39005+9999999GD49005+9999999GF100995999999999999999999MA1999999100854EQDN01 00000JPWTH 1QNNE11 1 09900E11 1 09900E11 1 09900E11 1 09900G11U1 99999H11 1 00999H11 1 00999H11 1 00999H11 1 00999K11 1 00048L11 1 01000M11 1 29780N11 1 00000Q11 1 10154S11 1 00057V11 1 00099W11 1 11006
0377999999938411950101007005+99999+999999SAO  +999999999V02004559001052200059N016000599+01334+00835101574ADDGA1999+999999999GA2999+999999999GA3999+999999999GA4999+999999999GD19005+9999999GD29005+9999999GD39005+9999999GD49005+9999999GF100995999999999999999999MA1999999100884EQDN01 00000JPWTH 1QNNE11 1 09900E11 1 09900E11 1 09900E11 1 09900G11U1 99999H11 1 00999H11 1 00999H11 1 00999H11 1 00999K11 1 00047L11 1 01000M11 1 29790N11 1 00000Q11 1 10157S11 1 00056V11 1 00099W11 1 22002
0377999999938411950101008005+99999+999999SAO  +999999999V02009059001552200059N012800599+01174+00725101544ADDGA1999+999999999GA2999+999999999GA3999+999999999GA4999+999999999GD19005+9999999GD29005+9999999GD39005+9999999GD49005+9999999GF100995999999999999999999MA1999999100854EQDN01 00000JPWTH 1QNNE11 1 09900E11 1 09900E11 1 09900E11 1 09900G11U1 99999H11 1 00999H11 1 00999H11 1 00999H11 1 00999K11 1 00045L11 1 00800M11 1 29780N11 1 00000Q11 1 10154S11 1 00053V11 1 00099W11 1 33003
0377999999938411950101009005+99999+999999SAO  +999999999V02004559001552200059N012800599+01114+00675101544ADDGA1999+999999999GA2999+999999999GA3999+999999999GA4999+999999999GD19005+9999999GD29005+9999999GD39005+9999999GD49005+9999999GF100995999999999999999999MA1999999100854EQDN01 00000JPWTH 1QNNE11 1 09900E11 1 09900E11 1 09900E11 1 09900G11U1 99999H11 1 00999H11 1 00999H11 1 00999H11 1 00999K11 1 00044L11 1 00800M11 1 29780N11 1 00000Q11 1 10154S11 1 00052V11 1 00099W11 1 22003
0088999999949101950123114005+42550-092400SAO  +026599999V02015859008850609649N012800599-00504-00785999999EQDN01 00000JPWTH 1QNNG11 1 00200K11 1 00018L11 1 00800N11 1 00000S11 1 00023W11 1 54017
0088999999949101950123115005+42550-092400SAO  +026599999V02015859008850609649N012800599-00334-00565999999EQDN01 00000JPWTH 1QNNG11 1 00200K11 1 00022L11 1 00800N11 1 00000S11 1 00026W11 1 54017
0088999999949101950123116005+42550-092400SAO  +026599999V02015859010850609649N012800599-00334-00505999999EQDN01 00000JPWTH 1QNNG11 1 00200K11 1 00023L11 1 00800N11 1 00000S11 1 00026W11 1 54021
0088999999949101950123117005+42550-092400SAO  +026599999V02015859008850609649N012800599-00334-00505999999EQDN01 00000JPWTH 1QNNG11 1 00200K11 1 00023L11 1 00800N11 1 00000S11 1 00026W11 1 54017
0088999999949101950123118005+42550-092400SAO  +026599999V02015859011350609649N012800599+00004-00335999999EQDN01 00000JPWTH 1QNNG11 1 00200K11 1 00026L11 1 00800N11 1 00000S11 1 00032W11 1 54022
0088999999949101950123119005+42550-092400SAO  +026599999V02015859013450304849N016000599+00174-00285999999EQDN01 00000JPWTH 1QNNG11 1 00100K11 1 00027L11 1 01000N11 1 00000S11 1 00035W11 1 54026
0088999999949101950123120005+42550-092400SAO  +026599999V02013559011850304849N016000599+00174-00285999999EQDN01 00000JPWTH 1QNNG11 1 00100K11 1 00027L11 1 01000N11 1 00000S11 1 00035W11 1 44023
0088999999949101950123121005+42550-092400SAO  +026599999V02013559012450304849N016000599+00224-00285999999EQDN01 00000JPWTH 1QNNG11 1 00100K11 1 00027L11 1 01000N11 1 00000S11 1 00036W11 1 44024
0088999999949101950123122005+42550-092400SAO  +026599999V02013559014450304849N016000599+00284-00285999999EQDN01 00000JPWTH 1QNNG11 1 00100K11 1 00027L11 1 01000N11 1 00000S11 1 00037W11 1 44028
0088999999949101952123123005+42550-092400SAO  +026599999V02013559011350304849N016000599+00174-00285999999EQDN01 00000JPWTH 1QNNG11 1 00100K11 1 00027L11 1 01000N11 1 00000S11 1 00035W11 1 44022



